:020000040000fa
:080000000001040000000000f3
:020000040000fa
:100200004fb020000eff20000e018800000000000b
:100210000c00070060b3200001002000110007005f
:10022000000020000000e000020032000000020098
:10023000000000002a020200000000000040da0076
:100240000000fe004440a900000020000000e00083
:100250000300320000002000a00188004440a800f4
:100260000000060091018800800078000000eb008b
:1002700015003700e280400032a0b4009101ba00be
:10028000e280400032a0b4009102ba00e280400057
:1002900032a0b4000002eb00472bde00f507b200ed
:1002a000602ce10004003a000059eb008301e900f2
:1002b000fdff3e00040037006128e100010032002c
:1002c0000082eb00040007001101ba000200e00008
:1002d000e8ff3a00000006003159ba008301e90046
:1002e0000c0032002159ba008301e90008003200f5
:1002f0000400e00003003a00e280400032a0b400b5
:10030000f5ff370011d9ba008301e900faff3a007e
:100310008100e800e180400032a0b4000000060047
:100320003200f800910188008002780062004000ed
:10033000e08048003549ba003204e0000410a7000c
:10034000100032008301e9000e0032002549ba0096
:100350003204e0000410a7000a0032008301e90023
:10036000080032000408a300eeff320015c9ba00ed
:100370003204e0000410a700020032008301e9000b
:10038000e8ff3a003200f900000006003200f800f1
:10039000910188000008bb00410424006210e100c4
:1003a00004003200000220000010e1000a003a00c0
:1003b00051042400013b88000500fc005105200089
:1003c000313b8800a10a2000313b880061e7a8008a
:1003d00000000000000000003200f90000000600ec
:1003e0003200f80060042400003b8800f2ff370070
:1003f0003200f8009101880041002400013b880090
:100400000208bb00ecff37003200f80091018800c1
:1004100051002400013b8800030120003218bb007a
:100420008301e900fdff3a00e3ff37000de2a90078
:100430008d20a9008d40a9008520a9008540a90034
:1004400000000600a210880060108800711088006b
:0404500000000600a2
:020000040000fa
:0200000401f009
:04000000e6bf000057
:020000040000fa
:0200000401f009
:04000400ff7f00007a
:020000040000fa
:0200000401f009
:04000800fcff0000f9
:020000040000fa
:0200000401f009
:04001400ffff0000ea
:020000040000fa
:10000800d4070000d4070000d4070000d40700007c
:10001800d4070000d4070000d4070000d40700006c
:10002800d4070000d4070000d4070000d40700005c
:10003800d4070000d4070000d4070000da07000046
:10004800d40700002e080000d4070000d4070000e1
:10005800d4070000d4070000d4070000d40700002c
:10006800d4070000d4070000d4070000d40700001c
:10007800d4070000d4070000d4070000d40700000c
:10008800d4070000d4070000d4070000d4070000fc
:10009800d4070000d4070000d4070000d4070000ec
:1000a800d4070000d4070000d4070000d4070000dc
:1000b800d4070000d4070000d4070000d4070000cc
:1000c800d4070000d4070000d4070000d4070000bc
:1000d800d4070000d4070000d4070000d4070000ac
:1000e800d4070000d4070000d4070000d40700009c
:0800f800d4070000d40700004a
:020000040000fa
:10010800d4070000d4070000d4070000d40700007b
:10011800d4070000d4070000d4070000d40700006b
:10012800d4070000d4070000d4070000d40700005b
:10013800d4070000d4070000d4070000da07000045
:10014800d40700002e080000d4070000d4070000e0
:10015800d4070000d4070000d4070000d40700002b
:10016800d4070000d4070000d4070000d40700001b
:10017800d4070000d4070000d4070000d40700000b
:10018800d4070000d4070000d4070000d4070000fb
:10019800d4070000d4070000d4070000d4070000eb
:1001a800d4070000d4070000d4070000d4070000db
:1001b800d4070000d4070000d4070000d4070000cb
:1001c800d4070000d4070000d4070000d4070000bb
:1001d800d4070000d4070000d4070000d4070000ab
:1001e800d4070000d4070000d4070000d40700009b
:0801f800d4070000d407000049
:020000040000fa
:100454000000fa002e030700420307005a030700b6
:100464007303070000468000c05688006f00070031
:10047400030007000000eb000080fa000000060003
:100484001600fa000000eb00600798000000eb0083
:10049400500798000000eb00100798004a0037004e
:1004a4001e00900080004000008820000080400072
:1004b40090007800c05680003a040700200f98008e
:1004c4001e00900080004000008820000080400052
:1004d400900078002e089000808f500003003a00ae
:1004e40010002000100f9800020037000000eb00fd
:1004f400100f980010002000000f78000a00370049
:100504001e0090009e0078004400dd0001004000c1
:1005140080004000208d2000008040001000780002
:10052400e10007001e0fe8001e009000c500dd007a
:10053400208d200000804000100078009e0f5000a5
:10054400efff3100005880000000e90000588800e7
:1005540000588000104078000080fb00000f9800d5
:100564008e0890001e0890000e0407007007980083
:100574007e0090000000e000100032001e00900099
:1005840080004000008a2000008040009000780035
:100594006e0090000a040700600798001e00900097
:1005a4008000400000882000008040009000780017
:1005b4005e00900002040700500798001e0090009f
:1005c4000000e80010079800e15780001e0090002a
:1005d400810f5000b2ff3900de0090006e009000e1
:1005e400f0030700400798005e009000e80307004e
:1005f40030079800ce0090003e009000f003070002
:1006040020079800c0568000ae009000e503070064
:10061400c0568800c0568000ee009000e803070032
:10062400c05688000100070096ff37000800fa0052
:100634000000eb00300798000f003700c056800020
:10064400be009000e50307000080fb000000e0000e
:1006540006003a003e00900080004000c0ad20003b
:10066400808040000000eb00800878003e0090008d
:100674000000e800300798003e009000ef0f5000a3
:10068400eeff36000000eb00100798001000200079
:10069400000f78000000eb003007980018003700c6
:1006a4000000eb00200798003e009000800040000e
:1006b400208c20000080400090007800c05680000c
:1006c400b8030700200798002e0090000000e00007
:1006d400040032009e0078001e009000b80307005a
:1006e40010079800110020001e007800c8030700be
:1006f400000f78003e0090000000e80030079800ea
:10070400f15780003e009000810f5000e4ff390053
:100714001e009000d0568800020007000080fa00f6
:10072400000006000000fa00d05680008000eb00b4
:10073400aa0307006140600061416000012e2000af
:1007440091407800e0cfb30000c060000240700028
:10075400e0e2b700d0568000110020009f0307009c
:10076400614060006140600000414000012e2000b3
:1007740091407800d0cfb30000c060000240700008
:10078400e0e2b700d0568000210020009303070068
:1007940061406000614060004201dd00012e2000e4
:1007a40091407800b0cfb30000c0600002407000f8
:1007b400e0e2b700d0568000310020008703070034
:1007c40061406000614060004301dd00012e2000b3
:1007d4009140780070cfb30000c060000240700008
:1007e400e0e2b700d0568000410020007b03070000
:1007f40061406000614060004401dd00012e200082
:1008040091407800f0ceb30000c060000240700058
:10081400e0e2b700d0568000510020006f030700cb
:1008240061406000614060004501dd00012e200050
:1008340091407800f0cdb30000c060000240700029
:10084400e0e2b700d0568000610020006303070097
:1008540061406000614060004601dd00012e20001f
:1008640091407800f0cbb30000c0600002407000fb
:10087400e0e2b700d0568000710020005703070063
:100884006140600061416000512d2000914078007a
:10089400e0cfb30000c0600002407000d5e2b700b2
:1008a4000080fa00000006000400fa001007980017
:1008b400010028001e0090003a030700000f780092
:1008c4001e00e0000c003a00010024001e0090000d
:1008d40034030700000f78001e00e00003003a0014
:1008e4001e009000110007000e0037001e0090004b
:1008f400630107000b003700010024001e00900074
:1009040028030700000f78001e00e00003003a00ef
:100914001e00900067010700020037001e009000cf
:10092400710107000080fa00000006003a00fa0096
:1009340020079800f10020002e0090001903070002
:10094400000f78001e0078006101b800521798006b
:1009540063179800f0002000010020005e11900051
:10096400ee119000800f5100818f59003d013e002f
:100974005e109000ee109000006001000f00370040
:100984002e0037004d003700630037006800370041
:10099400780037008800370098003700a800370037
:1009a400b8003700c8003700d8003700e900370026
:1009b400f900370009013700190137000058800099
:1009c4000000e9000058880000588000904078003a
:1009d40031479800005880000000e9000058880062
:1009e4000058800010417800224798000358800086
:1009f400431798003e4090008080fb002e409000fa
:100a04000080fb00008070008040eb00616798006c
:100a14000000e0000200320012c0b30062679800d8
:100a24006e609000ce11900080497800ce10900046
:100a34000100e800005888000f01370000588000ca
:100a44000000e90000588800005880001041780038
:100a540032479800005880000000e90000588800e0
:100a64000058800090417800234798000058800087
:100a7400201798003e4090008080fb002e4090009c
:100a84000080fb00008060008040eb00216798003c
:100a94000000e0000200320012c0b3002267980098
:100aa4002e609000ae11900080497800ae10900046
:100ab4000100e80000588800ef003700005880006b
:100ac4000000e900005888000058800010417800b8
:100ad4003247980003588000031798003e40900066
:100ae4000080fb008040eb00615f98000000e000a4
:100af40002003a0012c0b300625f98006e58900082
:100b04008e119000804978008e1090000100e8005a
:100b140000588800d80037000058800011c0b30086
:100b2400014878000000e80000588800d20037002f
:100b340002588000620f9800c8c2bf006140600084
:100b4400606f9800ee6990000304e0000200320038
:100b540010c0b300606f98006e689000ee089000bb
:100b6400804878006e0990000200e8000058880070
:100b7400c100370003588000530f9800c8c2bf005b
:100b840062406000706f98007e6890000004e0008e
:100b94000200320011c0b300716f98007e689000ab
:100ba4005e09900000497800de0990000300e80027
:100bb40000588800b000370000588000400f9800ab
:100bc400c8c2bf0064406000007798008e70900037
:100bd4000104e0000200320012c0b3000277980062
:100be4000e709000ce09900080497800ce089000e5
:100bf4000100e800005888009f0037000258800078
:100c0400320f9800c8c2bf00684060001077980097
:100c14009e7190000304e0000200320010c0b30093
:100c2400107798001e709000be08900080487800ed
:100c34003e0990000200e800005888008e0037004a
:100c440003588000230f9800c8c2bf0070406000a2
:100c5400207798002e7090000004e000020032001b
:100c640011c0b300217798002e7090002e099000d7
:100c740000497800ae0990000300e800005888009d
:100c84007d00370000588000100f9800c8c2bf00d4
:100c94000042b20030779800be7090000104e0007a
:100ca4000200320012c0b300327798003e70900008
:100cb4009e099000804978009e0890000100e80099
:100cc400005888006c00370002588000020f98001a
:100cd400c8c2bf000044b20040779800ce719000b3
:100ce4000304e0000200320010c0b3004077980013
:100cf4004e7090008e089000804878000e09900095
:100d04000200e800005888005b00370003588000a8
:100d140073079800c8c2bf0001c8b3000140600057
:100d2400507798005e7090000004e00002003200ea
:100d340011c0b300517798005e7090007e0190005e
:100d440000497800fe0190000300e8000058880084
:100d5400490037000058800060079800c9c2bf00ee
:100d64006140600060779800ee7090000104e0003c
:100d74000200320012c0b300627798006e709000d7
:100d8400ee01900080497800ee0090000100e80038
:100d94000058880038003700025880005207980035
:100da400c9c2bf006240600070779800fe71900075
:100db4000304e0000200320010c0b3007077980012
:100dc4007e709000de009000804878005e01900004
:100dd4000200e8000058880027003700035880000c
:100de40043079800c9c2bf0064406000007f9800b8
:100df4000e7890000004e0000200320011c0b3003d
:100e0400017f98000e7890004e0190000049780010
:100e1400ce0190000300e800005888001600370057
:100e24000058800030079800c9c2bf0068406000c5
:100e3400107f98009e7890000104e00002003200c8
:100e440012c0b300127f98001e789000be0190007b
:100e540080497800be0090000100e8000058880036
:100e640005003700005880008040eb0001487800fe
:100e74000000e800005888000080fa000000060026
:100e84000200fa00881f7800000f780008588000dc
:100e9400d05680009e007800d0010700004c7800f6
:100ea4000800e800005888004f0478000080fa0029
:100eb400000006000200fa00881f7800000f780086
:100ec40008588000c05680009e007800c3010700c7
:100ed400004c78000800e800005888004f047800af
:100ee4000080fa00000006000600fa0020079800bf
:100ef400c0568000ae009000b80107000080fb00df
:100f04000000e00006003a00005880008040eb003a
:100f1400014878000000e800005888001f003700ee
:100f240001ff23002e0090009e0107001007980087
:100f3400410020001e009000c00107001007980027
:100f4400f10020002e00900096010700000f7800a9
:100f54001e00780080004000c0ad200000804000ea
:100f6400900078001e009000808f50000600390029
:100f74000058800011c0b300014878000000e80068
:100f84000058880005003700005880008040eb00be
:100f9400014878000000e800005888000080fa004a
:100fa400000006000000fa000060fe00feff3700ab
:100fb4003600f800809fbe00829fbe00849fbe0062
:100fc400869fbe003400f80000002000a0018800c5
:100fd4000200fa0084e0a9000000eb00000f780092
:100fe40012003700c05680009e0078007b01070085
:100ff4000080fb000000e0000b0032001e017800be
:101004001e00780080004000c0ad20000080400039
:10101400100078008001e80082004100c0ad20008b
:1010240000804000030878001e0fe800f000200054
:101034009e0f1000ebff36000080fa003400f90028
:101044004f03be004f02be004f01be004f00be0062
:101054003600f900004006003600f800809fbe000c
:10106400829fbe00849fbe00869fbe000400fa00db
:101074008520a90090108000204798002e40900001
:10108400e24f40000900320010588000ae4090004a
:10109400014878000000e80010588800b05680002d
:1010a4000000e800b056880012003700d462a8009f
:1010b400b0568000000f78000600370010588000fa
:1010c4008040eb00014878000000e80010588800d8
:1010d4001e0fe800f00720009e0f1000f7ff3600f7
:1010e4000000eb00b05688000080200010588800f3
:1010f400ec0007000080fa004f03be004f02be0060
:101104004f01be004f00be003600f900004006004b
:101114000000fa000080eb00401588000080eb001e
:10112400301688000000eb00001788000000eb0078
:10113400101788000000eb00f0168800d502a90003
:10114400d702a900d302a900d462a900d662a900db
:10115400d262a900cfa2a800cda2a9000080fa0003
:10116400000006000000fa000000eb008008880080
:101174000000eb00900888000000eb005008880095
:101184000000eb0030088800100020007008880080
:10119400d012230060088800710920009140780073
:1011a400f0c8b30000c060000044a00097e0b7009e
:1011b40084e0a9008ce0a80080032800800888004f
:1011c4000080fa00000006000600fa0096fc070002
:1011d4008109200091407800f0c8b30000c060008d
:1011e4000044a00098e0b7008520a9008d20a80045
:1011f40000402800100798000000eb00000f780062
:1012040010082000200798002e0190009e0078000e
:101214001e0090008afc07000000eb00b056880016
:1012240000802000105888000080fa0000000600aa
:101234000c00fa0000c02f00f107200020079800de
:101244003107980000c02f00f10720002007980004
:10125400310798000002eb00030820000280200000
:101264002e009000be0090002cfc0700008020009f
:10127400100798001e00900010007800e0578800c6
:101284001e0090000080e800100798001e009000e7
:1012940010007800f05788001e0090000080e800dd
:1012a400100798000000eb00500798000d0037006d
:1012b400de0090001e009000100178008180400044
:1012c4000088200000804000020878001e00900082
:1012d4000080e800100798005e0090000000e8001d
:1012e40050079800e15780005e009000810f500085
:1012f400efff39000000eb00500798000d003700a5
:10130400de0090001e0090001001780081804000f3
:10131400008a200000804000020878001e0090002f
:101324000080e800100798005e0090000000e800cc
:1013340050079800e15780005e009000810f500034
:10134400efff39001e00900010007800004688006e
:101354001e0090000080e800100798000000eb00d9
:10136400500798000d003700de0090001e0090002a
:101374001001780081804000208c20000080400013
:10138400020878001e0090000080e8001007980012
:101394005e0090000000e80050079800f1578000bc
:1013a4005e009000810f5000efff39000000eb0059
:1013b40050079800350037001e009000100f780089
:1013c4001e0090000080e800100798005e00900066
:1013d400c500dd00208d2000008040001e0878003c
:1013e400100020004007980010003700de00900035
:1013f4004e0190001e009000900178004408dd002a
:101404000200400080004000208d20000080400049
:10141400030878001e0090000080e8001007980080
:101424004e0090000000e800400798004e00900035
:101434009e0f5000edff36001e00e80040079800a4
:101444000c0037005e009000ce0090004400dd00e8
:101454000100400080004000208d2000808040007a
:101464000000eb00800878004e0090000000e800c7
:10147400400798004e009000ef0f5000f1ff360037
:101484005e0090000000e80050079800e1578000db
:101494005e009000810f5000c7ff39000080fa0001
:1014a400000006002a00fa000000eb002007980064
:1014b40000c02f00f1072000008fbe000000eb00e9
:1014c400400798002d003700020220001e00be00d5
:1014d400adfb070061c7bf0001c8b3000140600055
:1014e4000004e000fbff3a000000eb003007980026
:1014f40010003700be0190002e00900080004000d4
:101504000080200000804000100078000001780076
:10151400ea0047000380410002b078002e009000ea
:101524000000e800200798003e0090000000e8005a
:10153400300798003e009000ef0f5000edff36009a
:101544006a0147001e00be00aefb070061c7bf0072
:1015540001c8b300014060000004e000fbff3a0052
:1015640000022000010020001e0f40005e9748008a
:101574004e0090000000e800400798004e009000e4
:10158400e30f5000d0ff36000080fa000000060090
:101594000200fa00000f78001e80ea000080fa00c2
:1015a400000006000400fa00000f780011079800fc
:1015b4001e0090001e0060000080fa00000006007b
:1015c4000400fa00000f7800110798001e00900034
:1015d4001e0070000080fa00000006000400fa00fb
:1015e400000f780011079800f10020001e00900001
:1015f400ecff0700800078001e0078000100de0088
:10160400610060000080fb000080fa00000006001a
:101614000400fa00000f780011079800f100200080
:101624001e009000dfff0700800078001e00780095
:101634000100dd000080fa00000006000400fa004a
:10164400000f780011079800f10020001e009000a0
:10165400d4ff0700800078001e0078000100de003f
:081664000080fa0000000600fe
:020000040000fa
:10166c00fc0a000008000000020000000500040055
:10167c0000d20a000008000000080000fc02000074
:08168c00000000000000000056
:020000040000fa
:0200000400fffb
:10f8000002000000020000000100000000000000f3
:10f8100001000000010000000200000002000000e2
:10f8200001000000020000000100000028e00000cc
:08f830000100000032e10000bc
:00000001FF
